{
  "address": "0x2e44eB3B3840D6466B0883E494e610ce379BdEa7",
  "abi": [
    {
      "inputs": [
        {
          "internalType": "address",
          "name": "vtfCoordinatorV2",
          "type": "address"
        },
        {
          "internalType": "uint256",
          "name": "entranceFee",
          "type": "uint256"
        },
        {
          "internalType": "bytes32",
          "name": "gasLane",
          "type": "bytes32"
        },
        {
          "internalType": "uint64",
          "name": "subscriptionId",
          "type": "uint64"
        },
        {
          "internalType": "uint32",
          "name": "callbackGasLimit",
          "type": "uint32"
        },
        {
          "internalType": "uint256",
          "name": "interval",
          "type": "uint256"
        }
      ],
      "stateMutability": "nonpayable",
      "type": "constructor"
    },
    {
      "inputs": [
        {
          "internalType": "address",
          "name": "have",
          "type": "address"
        },
        {
          "internalType": "address",
          "name": "want",
          "type": "address"
        }
      ],
      "name": "OnlyCoordinatorCanFulfill",
      "type": "error"
    },
    {
      "inputs": [],
      "name": "Raffle__NotEnoughETHEntered",
      "type": "error"
    },
    {
      "inputs": [],
      "name": "Raffle__NotOpen",
      "type": "error"
    },
    {
      "inputs": [],
      "name": "Raffle__TransactionFailed",
      "type": "error"
    },
    {
      "inputs": [
        {
          "internalType": "uint256",
          "name": "currentBalance",
          "type": "uint256"
        },
        {
          "internalType": "uint256",
          "name": "numPlayer",
          "type": "uint256"
        },
        {
          "internalType": "uint256",
          "name": "raffleState",
          "type": "uint256"
        }
      ],
      "name": "Raffle__UpkeepNotNeeded",
      "type": "error"
    },
    {
      "anonymous": false,
      "inputs": [
        {
          "indexed": true,
          "internalType": "address",
          "name": "player",
          "type": "address"
        }
      ],
      "name": "RaffleEnter",
      "type": "event"
    },
    {
      "anonymous": false,
      "inputs": [
        {
          "indexed": true,
          "internalType": "uint256",
          "name": "requestId",
          "type": "uint256"
        }
      ],
      "name": "RequestedRaffleWinner",
      "type": "event"
    },
    {
      "anonymous": false,
      "inputs": [
        {
          "indexed": true,
          "internalType": "address",
          "name": "winner",
          "type": "address"
        }
      ],
      "name": "WinnerPicked",
      "type": "event"
    },
    {
      "inputs": [
        {
          "internalType": "bytes",
          "name": "",
          "type": "bytes"
        }
      ],
      "name": "checkUpkeep",
      "outputs": [
        {
          "internalType": "bool",
          "name": "upkeepNeeded",
          "type": "bool"
        },
        {
          "internalType": "bytes",
          "name": "",
          "type": "bytes"
        }
      ],
      "stateMutability": "view",
      "type": "function"
    },
    {
      "inputs": [],
      "name": "enterRaffle",
      "outputs": [],
      "stateMutability": "payable",
      "type": "function"
    },
    {
      "inputs": [],
      "name": "getEntranceFee",
      "outputs": [
        {
          "internalType": "uint256",
          "name": "",
          "type": "uint256"
        }
      ],
      "stateMutability": "view",
      "type": "function"
    },
    {
      "inputs": [],
      "name": "getInterval",
      "outputs": [
        {
          "internalType": "uint256",
          "name": "",
          "type": "uint256"
        }
      ],
      "stateMutability": "view",
      "type": "function"
    },
    {
      "inputs": [],
      "name": "getLastTimeStamp",
      "outputs": [
        {
          "internalType": "uint256",
          "name": "",
          "type": "uint256"
        }
      ],
      "stateMutability": "view",
      "type": "function"
    },
    {
      "inputs": [],
      "name": "getNumberOfPlayers",
      "outputs": [
        {
          "internalType": "uint256",
          "name": "",
          "type": "uint256"
        }
      ],
      "stateMutability": "view",
      "type": "function"
    },
    {
      "inputs": [],
      "name": "getNumsWords",
      "outputs": [
        {
          "internalType": "uint32",
          "name": "",
          "type": "uint32"
        }
      ],
      "stateMutability": "pure",
      "type": "function"
    },
    {
      "inputs": [
        {
          "internalType": "uint256",
          "name": "index",
          "type": "uint256"
        }
      ],
      "name": "getPlayer",
      "outputs": [
        {
          "internalType": "address",
          "name": "",
          "type": "address"
        }
      ],
      "stateMutability": "view",
      "type": "function"
    },
    {
      "inputs": [],
      "name": "getRaffleState",
      "outputs": [
        {
          "internalType": "enum Raffle.RaffleState",
          "name": "",
          "type": "uint8"
        }
      ],
      "stateMutability": "view",
      "type": "function"
    },
    {
      "inputs": [],
      "name": "getRecentWinner",
      "outputs": [
        {
          "internalType": "address",
          "name": "",
          "type": "address"
        }
      ],
      "stateMutability": "view",
      "type": "function"
    },
    {
      "inputs": [
        {
          "internalType": "bytes",
          "name": "",
          "type": "bytes"
        }
      ],
      "name": "performUpkeep",
      "outputs": [],
      "stateMutability": "nonpayable",
      "type": "function"
    },
    {
      "inputs": [],
      "name": "pickRandomWinner",
      "outputs": [],
      "stateMutability": "nonpayable",
      "type": "function"
    },
    {
      "inputs": [
        {
          "internalType": "uint256",
          "name": "requestId",
          "type": "uint256"
        },
        {
          "internalType": "uint256[]",
          "name": "randomWords",
          "type": "uint256[]"
        }
      ],
      "name": "rawFulfillRandomWords",
      "outputs": [],
      "stateMutability": "nonpayable",
      "type": "function"
    },
    {
      "inputs": [],
      "name": "requestRandomWinner",
      "outputs": [],
      "stateMutability": "nonpayable",
      "type": "function"
    }
  ],
  "transactionHash": "0xc3e06f140f9f4f85629fa95c2eff672fc849bcba4eb2a8e07abc1352dead0b5b",
  "args": [
    "0x6168499c0cFfCaCD319c818142124B7A15E857ab",
    "10000000000000000",
    "0xd89b2bf150e3b9e13446986e571fb9cab24b13cea0a43ea20a6049a85cc807cc",
    "18742",
    "500000",
    "30"
  ],
  "numDeployments": 2,
  "solcInputHash": "956e3f07a05e0be7226e7e6ea7f8638a",
  "bytecode": "0x6101606040523480156200001257600080fd5b5060405162001eb838038062001eb88339818101604052810190620000389190620001a6565b858073ffffffffffffffffffffffffffffffffffffffff1660808173ffffffffffffffffffffffffffffffffffffffff1660601b81525050508460a081815250508573ffffffffffffffffffffffffffffffffffffffff1660c08173ffffffffffffffffffffffffffffffffffffffff1660601b815250508360e081815250508267ffffffffffffffff166101008167ffffffffffffffff1660c01b815250508163ffffffff166101208163ffffffff1660e01b815250506000600160146101000a81548160ff02191690836001811115620001195762000118620002ae565b5b021790555080610140818152505050505050505062000364565b6000815190506200014481620002e2565b92915050565b6000815190506200015b81620002fc565b92915050565b600081519050620001728162000316565b92915050565b600081519050620001898162000330565b92915050565b600081519050620001a0816200034a565b92915050565b60008060008060008060c08789031215620001c657620001c5620002dd565b5b6000620001d689828a0162000133565b9650506020620001e989828a0162000161565b9550506040620001fc89828a016200014a565b94505060606200020f89828a016200018f565b93505060806200022289828a0162000178565b92505060a06200023589828a0162000161565b9150509295509295509295565b60006200024f8262000260565b9050919050565b6000819050919050565b600073ffffffffffffffffffffffffffffffffffffffff82169050919050565b6000819050919050565b600063ffffffff82169050919050565b600067ffffffffffffffff82169050919050565b7f4e487b7100000000000000000000000000000000000000000000000000000000600052602160045260246000fd5b600080fd5b620002ed8162000242565b8114620002f957600080fd5b50565b620003078162000256565b81146200031357600080fd5b50565b620003218162000280565b81146200032d57600080fd5b50565b6200033b816200028a565b81146200034757600080fd5b50565b62000355816200029a565b81146200036157600080fd5b50565b60805160601c60a05160c05160601c60e0516101005160c01c6101205160e01c61014051611ab56200040360003960008181610a2501528181610a6a0152610b2301526000818161073f01526108df01526000818161071c01526108bc0152600081816106fb015261089b0152600081816106bf015261085f015260008181610318015261041e01526000818161035501526103a90152611ab56000f3fe6080604052600436106100dd5760003560e01c8063522a1f0b1161007f57806391ad27b41161005957806391ad27b414610256578063c1c244e814610281578063e55ae4e8146102ac578063fd6673f5146102e9576100dd565b8063522a1f0b146101ea5780636e04ff0d14610201578063898da2291461023f576100dd565b80632afb061c116100bb5780632afb061c146101615780632cfcc5391461018c5780634585e33b14610196578063473f1ddc146101bf576100dd565b806309bc33a7146100e2578063115cbaf51461010d5780631fe543e314610138575b600080fd5b3480156100ee57600080fd5b506100f7610314565b6040516101049190611684565b60405180910390f35b34801561011957600080fd5b5061012261033c565b60405161012f91906115e7565b60405180910390f35b34801561014457600080fd5b5061015f600480360381019061015a91906113a2565b610353565b005b34801561016d57600080fd5b50610176610413565b60405161018391906116d6565b60405180910390f35b61019461041c565b005b3480156101a257600080fd5b506101bd60048036038101906101b891906112b2565b61058b565b005b3480156101cb57600080fd5b506101d4610807565b6040516101e19190611520565b60405180910390f35b3480156101f657600080fd5b506101ff610831565b005b34801561020d57600080fd5b50610228600480360381019061022391906112ff565b6109a4565b604051610236929190611564565b60405180910390f35b34801561024b57600080fd5b50610254610b1d565b005b34801561026257600080fd5b5061026b610b1f565b6040516102789190611684565b60405180910390f35b34801561028d57600080fd5b50610296610b47565b6040516102a39190611684565b60405180910390f35b3480156102b857600080fd5b506102d360048036038101906102ce9190611348565b610b51565b6040516102e09190611520565b60405180910390f35b3480156102f557600080fd5b506102fe610b98565b60405161030b9190611684565b60405180910390f35b60007f0000000000000000000000000000000000000000000000000000000000000000905090565b6000600160149054906101000a900460ff16905090565b7f000000000000000000000000000000000000000000000000000000000000000073ffffffffffffffffffffffffffffffffffffffff163373ffffffffffffffffffffffffffffffffffffffff161461040557337f00000000000000000000000000000000000000000000000000000000000000006040517f1cf993f40000000000000000000000000000000000000000000000000000000081526004016103fc92919061153b565b60405180910390fd5b61040f8282610ba4565b5050565b60006001905090565b7f0000000000000000000000000000000000000000000000000000000000000000341015610476576040517fbd4e069500000000000000000000000000000000000000000000000000000000815260040160405180910390fd5b6000600181111561048a57610489611995565b5b600160149054906101000a900460ff1660018111156104ac576104ab611995565b5b146104e3576040517f1425571c00000000000000000000000000000000000000000000000000000000815260040160405180910390fd5b6000339080600181540180825580915050600190039060005260206000200160009091909190916101000a81548173ffffffffffffffffffffffffffffffffffffffff021916908373ffffffffffffffffffffffffffffffffffffffff1602179055503373ffffffffffffffffffffffffffffffffffffffff167f0805e1d667bddb8a95f0f09880cf94f403fb596ce79928d9f29b74203ba284d460405160405180910390a2565b6105c96040518060400160405280600d81526020017f706572666f726d55706b65657000000000000000000000000000000000000000815250610e83565b60006105e3604051806020016040528060008152506109a4565b5090506106256040518060400160405280601d81526020017f706572666f726d55706b656570207e207570436865636b55706b65657000000081525082610f1c565b806106915747600080549050600160149054906101000a900460ff16600181111561065357610652611995565b5b6040517f584327aa0000000000000000000000000000000000000000000000000000000081526004016106889392919061169f565b60405180910390fd5b60018060146101000a81548160ff021916908360018111156106b6576106b5611995565b5b021790555060007f000000000000000000000000000000000000000000000000000000000000000073ffffffffffffffffffffffffffffffffffffffff16635d3b1d307f00000000000000000000000000000000000000000000000000000000000000007f000000000000000000000000000000000000000000000000000000000000000060037f000000000000000000000000000000000000000000000000000000000000000060016040518663ffffffff1660e01b8152600401610780959493929190611594565b602060405180830381600087803b15801561079a57600080fd5b505af11580156107ae573d6000803e3d6000fd5b505050506040513d601f19601f820116820180604052508101906107d29190611375565b9050807fcd6e45c8998311cab7e9d4385596cac867e20a0587194b954fa3a731c93ce78b60405160405180910390a250505050565b6000600160009054906101000a900473ffffffffffffffffffffffffffffffffffffffff16905090565b60018060146101000a81548160ff0219169083600181111561085657610855611995565b5b021790555060007f000000000000000000000000000000000000000000000000000000000000000073ffffffffffffffffffffffffffffffffffffffff16635d3b1d307f00000000000000000000000000000000000000000000000000000000000000007f000000000000000000000000000000000000000000000000000000000000000060037f000000000000000000000000000000000000000000000000000000000000000060016040518663ffffffff1660e01b8152600401610920959493929190611594565b602060405180830381600087803b15801561093a57600080fd5b505af115801561094e573d6000803e3d6000fd5b505050506040513d601f19601f820116820180604052508101906109729190611375565b9050807fcd6e45c8998311cab7e9d4385596cac867e20a0587194b954fa3a731c93ce78b60405160405180910390a250565b6000606060008060018111156109bd576109bc611995565b5b600160149054906101000a900460ff1660018111156109df576109de611995565b5b149050610a216040518060400160405280601d81526020017f29766965776f7665727269646572657475726e73207e2069734f70656e00000081525082610f1c565b60007f000000000000000000000000000000000000000000000000000000000000000060025442610a5291906117b6565b119050600080600080549050119050600080471190507f000000000000000000000000000000000000000000000000000000000000000060025442610a9791906117b6565b119550610ad96040518060400160405280600e81526020017f7e2075706b6565704e656564656400000000000000000000000000000000000081525087610f1c565b856040518060400160405280600381526020017f30783000000000000000000000000000000000000000000000000000000000008152509550955050505050915091565b565b60007f0000000000000000000000000000000000000000000000000000000000000000905090565b6000600254905090565b6000808281548110610b6657610b656119c4565b5b9060005260206000200160009054906101000a900473ffffffffffffffffffffffffffffffffffffffff169050919050565b60008080549050905090565b6000808054905082600081518110610bbf57610bbe6119c4565b5b6020026020010151610bd19190611906565b90506000808281548110610be857610be76119c4565b5b9060005260206000200160009054906101000a900473ffffffffffffffffffffffffffffffffffffffff16905080600160006101000a81548173ffffffffffffffffffffffffffffffffffffffff021916908373ffffffffffffffffffffffffffffffffffffffff1602179055506000600160146101000a81548160ff02191690836001811115610c7c57610c7b611995565b5b0217905550600067ffffffffffffffff811115610c9c57610c9b6119f3565b5b604051908082528060200260200182016040528015610cca5781602001602082028036833780820191505090505b5060009080519060200190610ce092919061107d565b5042600281905550610d296040518060400160405280600f81526020017f735f6c61737454696d655374616d700000000000000000000000000000000000815250600254610fb8565b60008173ffffffffffffffffffffffffffffffffffffffff1647604051610d4f9061150b565b60006040518083038185875af1925050503d8060008114610d8c576040519150601f19603f3d011682016040523d82523d6000602084013e610d91565b606091505b5050905080610dcc576040517f8dea0f0700000000000000000000000000000000000000000000000000000000815260040160405180910390fd5b60006001811115610de057610ddf611995565b5b600160149054906101000a900460ff166001811115610e0257610e01611995565b5b14610e39576040517f1425571c00000000000000000000000000000000000000000000000000000000815260040160405180910390fd5b8173ffffffffffffffffffffffffffffffffffffffff167f5b690ec4a06fe979403046eaeea5b3ce38524683c3001f662c8b5a829632f7df60405160405180910390a25050505050565b610f1981604051602401610e979190611602565b6040516020818303038152906040527f41304fac000000000000000000000000000000000000000000000000000000007bffffffffffffffffffffffffffffffffffffffffffffffffffffffff19166020820180517bffffffffffffffffffffffffffffffffffffffffffffffffffffffff8381831617835250505050611054565b50565b610fb48282604051602401610f32929190611624565b6040516020818303038152906040527fc3b55635000000000000000000000000000000000000000000000000000000007bffffffffffffffffffffffffffffffffffffffffffffffffffffffff19166020820180517bffffffffffffffffffffffffffffffffffffffffffffffffffffffff8381831617835250505050611054565b5050565b6110508282604051602401610fce929190611654565b6040516020818303038152906040527fb60e72cc000000000000000000000000000000000000000000000000000000007bffffffffffffffffffffffffffffffffffffffffffffffffffffffff19166020820180517bffffffffffffffffffffffffffffffffffffffffffffffffffffffff8381831617835250505050611054565b5050565b60008151905060006a636f6e736f6c652e6c6f679050602083016000808483855afa5050505050565b8280548282559060005260206000209081019282156110f6579160200282015b828111156110f55782518260006101000a81548173ffffffffffffffffffffffffffffffffffffffff021916908373ffffffffffffffffffffffffffffffffffffffff1602179055509160200191906001019061109d565b5b5090506111039190611107565b5090565b5b80821115611120576000816000905550600101611108565b5090565b600061113761113284611716565b6116f1565b9050808382526020820190508285602086028201111561115a57611159611a2c565b5b60005b8581101561118a57816111708882611288565b84526020840193506020830192505060018101905061115d565b5050509392505050565b60006111a76111a284611742565b6116f1565b9050828152602081018484840111156111c3576111c2611a31565b5b6111ce848285611893565b509392505050565b600082601f8301126111eb576111ea611a27565b5b81356111fb848260208601611124565b91505092915050565b60008083601f84011261121a57611219611a27565b5b8235905067ffffffffffffffff81111561123757611236611a22565b5b60208301915083600182028301111561125357611252611a2c565b5b9250929050565b600082601f83011261126f5761126e611a27565b5b813561127f848260208601611194565b91505092915050565b60008135905061129781611a68565b92915050565b6000815190506112ac81611a68565b92915050565b600080602083850312156112c9576112c8611a3b565b5b600083013567ffffffffffffffff8111156112e7576112e6611a36565b5b6112f385828601611204565b92509250509250929050565b60006020828403121561131557611314611a3b565b5b600082013567ffffffffffffffff81111561133357611332611a36565b5b61133f8482850161125a565b91505092915050565b60006020828403121561135e5761135d611a3b565b5b600061136c84828501611288565b91505092915050565b60006020828403121561138b5761138a611a3b565b5b60006113998482850161129d565b91505092915050565b600080604083850312156113b9576113b8611a3b565b5b60006113c785828601611288565b925050602083013567ffffffffffffffff8111156113e8576113e7611a36565b5b6113f4858286016111d6565b9150509250929050565b611407816117ea565b82525050565b611416816117fc565b82525050565b61142581611808565b82525050565b600061143682611773565b6114408185611789565b93506114508185602086016118a2565b61145981611a40565b840191505092915050565b61146d81611881565b82525050565b600061147e8261177e565b61148881856117a5565b93506114988185602086016118a2565b6114a181611a40565b840191505092915050565b60006114b960008361179a565b91506114c482611a51565b600082019050919050565b6114d881611825565b82525050565b6114e781611853565b82525050565b6114f68161185d565b82525050565b6115058161186d565b82525050565b6000611516826114ac565b9150819050919050565b600060208201905061153560008301846113fe565b92915050565b600060408201905061155060008301856113fe565b61155d60208301846113fe565b9392505050565b6000604082019050611579600083018561140d565b818103602083015261158b818461142b565b90509392505050565b600060a0820190506115a9600083018861141c565b6115b660208301876114fc565b6115c360408301866114cf565b6115d060608301856114ed565b6115dd60808301846114ed565b9695505050505050565b60006020820190506115fc6000830184611464565b92915050565b6000602082019050818103600083015261161c8184611473565b905092915050565b6000604082019050818103600083015261163e8185611473565b905061164d602083018461140d565b9392505050565b6000604082019050818103600083015261166e8185611473565b905061167d60208301846114de565b9392505050565b600060208201905061169960008301846114de565b92915050565b60006060820190506116b460008301866114de565b6116c160208301856114de565b6116ce60408301846114de565b949350505050565b60006020820190506116eb60008301846114ed565b92915050565b60006116fb61170c565b905061170782826118d5565b919050565b6000604051905090565b600067ffffffffffffffff821115611731576117306119f3565b5b602082029050602081019050919050565b600067ffffffffffffffff82111561175d5761175c6119f3565b5b61176682611a40565b9050602081019050919050565b600081519050919050565b600081519050919050565b600082825260208201905092915050565b600081905092915050565b600082825260208201905092915050565b60006117c182611853565b91506117cc83611853565b9250828210156117df576117de611937565b5b828203905092915050565b60006117f582611833565b9050919050565b60008115159050919050565b6000819050919050565b600081905061182082611a54565b919050565b600061ffff82169050919050565b600073ffffffffffffffffffffffffffffffffffffffff82169050919050565b6000819050919050565b600063ffffffff82169050919050565b600067ffffffffffffffff82169050919050565b600061188c82611812565b9050919050565b82818337600083830152505050565b60005b838110156118c05780820151818401526020810190506118a5565b838111156118cf576000848401525b50505050565b6118de82611a40565b810181811067ffffffffffffffff821117156118fd576118fc6119f3565b5b80604052505050565b600061191182611853565b915061191c83611853565b92508261192c5761192b611966565b5b828206905092915050565b7f4e487b7100000000000000000000000000000000000000000000000000000000600052601160045260246000fd5b7f4e487b7100000000000000000000000000000000000000000000000000000000600052601260045260246000fd5b7f4e487b7100000000000000000000000000000000000000000000000000000000600052602160045260246000fd5b7f4e487b7100000000000000000000000000000000000000000000000000000000600052603260045260246000fd5b7f4e487b7100000000000000000000000000000000000000000000000000000000600052604160045260246000fd5b600080fd5b600080fd5b600080fd5b600080fd5b600080fd5b600080fd5b6000601f19601f8301169050919050565b50565b60028110611a6557611a64611995565b5b50565b611a7181611853565b8114611a7c57600080fd5b5056fea264697066735822122089bebb05063336252371dc846f86e7a53a0c1bce81cc9a24bbeb8355654eb8a964736f6c63430008070033",
  "devdoc": {
    "kind": "dev",
    "methods": {},
    "version": 1
  },
  "userdoc": {
    "kind": "user",
    "methods": {},
    "version": 1
  },
  "storageLayout": {
    "storage": [
      {
        "astId": 246,
        "contract": "contracts/Raffle.sol:Raffle",
        "label": "s_players",
        "offset": 0,
        "slot": "0",
        "type": "t_array(t_address_payable)dyn_storage"
      },
      {
        "astId": 262,
        "contract": "contracts/Raffle.sol:Raffle",
        "label": "s_recentWinner",
        "offset": 0,
        "slot": "1",
        "type": "t_address"
      },
      {
        "astId": 265,
        "contract": "contracts/Raffle.sol:Raffle",
        "label": "s_raffleState",
        "offset": 20,
        "slot": "1",
        "type": "t_enum(RaffleState)238"
      },
      {
        "astId": 267,
        "contract": "contracts/Raffle.sol:Raffle",
        "label": "s_lastTimeStamp",
        "offset": 0,
        "slot": "2",
        "type": "t_uint256"
      }
    ],
    "types": {
      "t_address": {
        "encoding": "inplace",
        "label": "address",
        "numberOfBytes": "20"
      },
      "t_address_payable": {
        "encoding": "inplace",
        "label": "address payable",
        "numberOfBytes": "20"
      },
      "t_array(t_address_payable)dyn_storage": {
        "base": "t_address_payable",
        "encoding": "dynamic_array",
        "label": "address payable[]",
        "numberOfBytes": "32"
      },
      "t_enum(RaffleState)238": {
        "encoding": "inplace",
        "label": "enum Raffle.RaffleState",
        "numberOfBytes": "1"
      },
      "t_uint256": {
        "encoding": "inplace",
        "label": "uint256",
        "numberOfBytes": "32"
      }
    }
  }
}